:400000000080002011000000DD030000DD03000008B5044B1A6803F53F5302331A6000F0FDF900BFFA46004010B5054C237833B9044B13B10448AFF300800123237010BDC1
:400040004881FF1F00000000881B0000084B10B51BB108490848AFF300800848036803B910BD074B002BFBD0BDE81040184700BF000000004C81FF1F881B0000C880FF1FBC
:4000800000000000F0B58FB062B662B600F068FA00F0D2FB00F05CFB00F074FA00F038FA00273C4600E0374600F032FA80B200F0CDFE2F4900F01EFF064600F0B9FD024688
:4000C0000B462C4901A801F03BF931462A4800F007FE05460146204600F004FE04463946304600F0FDFD254900F004FF07462449284600F0B3FF234900F0FCFE014620464D
:4001000000F0F0FD394600F0EBFD07464FF07E51204601F0ABF828B91B49204601F088F828B102E04FF07E5401E04FF07E541749384601F09BF800B1144F0F49284601F02F
:4001400095F850B14FF07C51384600F0D3FE01F097F880B200F01EFBA5E70749284601F067F800289FD040F6B83000F013FB9AE72A67B73C8C1B00000000F04150FCF6403F
:400180000000C84206F521C0000080BF00FF7F47FEE700BFF0B40022174611E050F82760F3B226F0FF0608E001EB420511F812406D78A5550132013BDBB2002BF4D1013795
:4001C0000F2FEBD9F0BC7047064B1B78DBB203F00701054A11701B09013213704422034B1A707047CF0100496E5800407658004008B50A46002101F09AF808BD38B50122DC
:40020000254B1A80182325490B7002310A80244A13700222234B1A7008224FF040231A70032103F5007319701F4B1B78DBB21F490B701F4B1A8041F25122023B1A80002446
:4002400019250CE01B4B1B7803F0010343EA440404F003044FF4F07000F076FB013D0DB1032CEFD115B90320FFF792FF124B4FF480721A8007221A70002210490A70482051
:40028000023108701A700222033B1A700C4A137843F00303137038BD8040004082400040864000400043004008010049A14600402242004025420040044000400640004032
:4002C000A243004008B501F027F808BD38B572B62F4A137843F00403137000240CE02D4D630019194A0011462A44084691882858FFF77EFF0134E4B2082CF0D926494FF073
:400300009040FFF747FF254A254B1A60254A137843F0020313701032137843F002031370214C237843F040032370A2F58632513A137843F01003137008221C491C48FFF7F3
:40034000C1FF08221B491C48FFF7BCFF08221B491B48FFF7B7FF08221A491B48FFF7B2FF1A4A137843F008031370194D61232B70FFF744FF81232B700122164B1A70FFF735
:4003800023FF0E2221461448FFF79CFF38BD00BFE8460040901B000040000048040400445806014003500140A0430040F80300480251004000040048125100400804004887
:4003C000225100401004004842510040224300400048004004000840B043004008B500F06FFF03680C2B00D1FEE7FEE708B5094B1A681044084BC31A802B02DC054B1860AF
:4004000005E000F05DFF0C2303604FF0FF32104608BD00BFCC80FF1F7881FF1F08B5104E104D16E029686B68AC68002204E051F8040B43F8040B0432A242F8D1E86800224B
:4004400003E0002143F8041B04328242F9D11035013E002EE6D100F039FFFFF713FEFEE701000000201C000008B5104A104B1A60104A136843F40073136000230AE0032B87
:4004800003D80D4A52F8231000E00C490C4A42F8231001332F2BF2D90A4B1A780A4B1A70074A0A4B1A60FFF711FF08BD0004FA050CED00E014ED00E000000000DD030000EE
:4004C0000080FF1FBC760040C080FF1F08ED00E010B5044605E0084B186800F035FAA4F50044B4F5004FF6D8034B586800FB04F000F02AFA10BD00BFD080FF1F08B5034B1A
:400500001B7A00FB03F000F01FFA08BDD080FF1F08B500F0B9F9A0F5004000B208BD00BF024B187800F00F00704700BF67640040014B1870704700BF8764004008B50F20D4
:40054000FFF7F6FFFFF7ECFF00F006FA034A137843F01003137000F003FA08BD9764004008B500F0E3F94FF4004000F087F9044B1B7813B90122024B1A70FFF7DFFF08BD74
:400580006481FF1F054A137843F0020313701032137843F002031370704700BFA243004010B50B4C237803F09F032370237803F0F00323702378184340F0100020700120A6
:4005C000FFF79CFF237803F0EF03237010BD00BF0051004070B5354B1A7802F08002D2B21A7033490A7802F0F00242F00F020A7001310A7802F0F0020A7001310A7802F02A
:40060000F0020A701A7802F0DF021A701A7842F040021A704FF4CA760020FFF76FFF234D2B7843F010032B700120FFF767FF214B1C78E4B22B7803F0EF032B700020FFF788
:400640005DFF04F00804E4B22B7843F010032B700120FFF753FF2B7803F0EF032B7014B90A20FFF74BFF013E0CB1002ED4D10F4A137803F0BF031370137803F08003DBB2C8
:4006800013700232137803F0F00313700132137803F0F00343F00F0313700132137803F0F00343F00F03137070BD00BF00510040025100400151004010B50446FFF78AFF87
:4006C0002009FFF76DFF04F00F00FFF769FF10BD08B52820FFF7FCFE0320FFF761FF0520FFF7F6FE0320FFF75BFF0F20FFF7F0FE0320FFF755FF0120FFF7EAFE0220FFF7BA
:400700004FFF0520FFF7E4FE0620FFF7D5FF0E20FFF7D2FF2C20FFF7CFFF0820FFF7CCFF0120FFF7C9FF0C20FFF7C6FF0320FFF7C3FF0520FFF7CCFE08BD00BF08B50C209D
:40074000FFF7BAFF0122014B1A7008BD6581FF1F08B5054B5B7823B9FFF7BAFF0122024B5A70FFF7EBFF08BD6581FF1F024A137843F080031370704771640040014B1880FA
:40078000704700BF00680040014B1880704700BF80680040014B1880704700BF40680040014B1870704700BF81640040014B1878704700BF61640040014B188880B27047BC
:4007C000A068004008B501E0FFF7F6FFFFF7EEFF10F0100FF8D108BD10B5154A137803F0C00343F0090313701F32137843F001031370104C237843F0010323704FF6FF7066
:40080000FFF7BCFF4FF6FF70FFF7BEFF4FF40040FFF7C0FF0020FFF7C3FF00F09DF8237843F01003237000F09BF8FFF7CBFF10BD716400409164004008B5054B1B7823B9C1
:40084000FFF7CAFF0122024B1A70FFF78FFF08BD6781FF1F024A137843F080031370704774640040014B1870704700BF86640040014B1878704700BF66640040014B1880DD
:40088000704700BF08680040024B1B78024B188880B270470464004088680040014B188880B2704788680040014B1880704700BF48680040014B1880704700BF68680040CB
:4008C00008B501E0FFF7EAFFFFF7D2FF10F0400FF8D108BD08B5134B1A7802F0F8021A701A7802F0FC021A70FFF7EAFF4FF40040FFF7DAFF4FF40040FFF7C0FF0020FFF729
:40090000B1FFFFF7B5FF4FF40040FFF7D3FF00F023F8054A137843F01003137000F020F808BD00BF746400409664004008B5054B1B7823B9FFF7CEFF0122024B1A70FFF757
:4009400089FF08BD6881FF1F0230800803D000BF01380046FCD17047EFF3108072B6704780F31088704700BF81F0004102E000BF83F0004330B54FEA41044FEA430594EA97
:40098000050F08BF90EA020F1FBF54EA000C55EA020C7FEA645C7FEA655C00F0E2804FEA5454D4EB5555B8BF6D420CDD2C4480EA020281EA030382EA000083EA010180EACA
:4009C000020281EA0303362D88BF30BD11F0004F4FEA01314FF4801C4CEA113102D0404261EB410113F0004F4FEA03334CEA133302D0524263EB430394EA050F00F0A78017
:400A0000A4F10104D5F1200E0DDB02FA0EFC22FA05F2801841F1000103FA0EF2801843FA05F359410EE0A5F120050EF1200E012A03FA0EFC28BF4CF0020C43FA05F3C018B2
:400A400051EBE37101F0004507D54FF0000EDCF1000C7EEB00006EEB0101B1F5801F1BD3B1F5001F0CD349085FEA30004FEA3C0C04F101044FEA445212F5800F80F09A80DF
:400A8000BCF1004F08BF5FEA500C50F1000041EB045141EA050130BD5FEA4C0C404141EB010111F4801FA4F10104E9D191F0000F04BF01460020B1FA81F308BF2033A3F11F
:400AC0000B03B3F120020CDA0C3208DD02F1140CC2F10C0201FA0CF021FA02F10CE002F11402D8BFC2F1200C01FA02F120FA0CFCDCBF41EA0C019040E41AA2BF01EB045182
:400B0000294330BD6FEA04041F3C1CDA0C340EDC04F11404C4F1200220FA04F001FA02F340EA030021FA04F345EA030130BDC4F10C04C4F1200220FA02F001FA04F340EA7B
:400B40000300294630BD21FA04F0294630BD94F0000F83F4801306BF81F480110134013D4EE77FEA645C18BF7FEA655C29D094EA050F08BF90EA020F05D054EA000C04BFB2
:400B80001946104630BD91EA030F1EBF0021002030BD5FEA545C05D14000494128BF41F0004130BD14F580043CBF01F5801130BD01F0004545F0FE4141F470014FF0000091
:400BC00030BD7FEA645C1ABF194610467FEA655C1CBF0B46024650EA013406BF52EA033591EA030F41F4002130BD00BF90F0000F04BF0021704730B54FF4806404F132041B
:400C00004FF000054FF0000150E700BF90F0000F04BF0021704730B54FF4806404F1320410F0004548BF40424FF000013EE700BF42004FEAE2014FEA31014FEA02701FBF95
:400C400012F07F4393F07F4F81F06051704792F0000F14BF93F07F4F704730B54FF4607401F0004521F0004120E700BF50EA010208BF704730B54FF000050AE050EA0102C5
:400C800008BF704730B511F0004502D5404261EB41014FF4806404F132045FEA915C3FF4DCAE4FF003025FEADC0C18BF03325FEADC0C18BF033202EBDC02C2F1200300FA06
:400CC00003FC20FA02F001FA03FE40EA0E0021FA02F11444C1E600BF80F0004002E000BF81F0004142001FBF5FEA410392EA030F7FEA226C7FEA236C6AD04FEA1262D2EB18
:400D00001363C1BFD218414048404140B8BF5B42192B88BF704710F0004F40F4000020F07F4018BF404211F0004F41F4000121F07F4118BF494292EA030F3FD0A2F101025C
:400D400041FA03FC10EB0C00C3F1200301FA03F100F0004302D5494260EB4000B0F5000F13D3B0F1807F06D340084FEA310102F10102FE2A51D2B1F1004F40EBC25008BF50
:400D800020F0010040EA03007047490040EB000010F4000FA2F10102EDD1B0FA80FCACF1080CB2EB0C0200FA0CF0AABF00EBC25052421843BCBFD0401843704792F0000F68
:400DC00081F4000106BF80F400000132013BB5E74FEA41037FEA226C18BF7FEA236C21D092EA030F04D092F0000F08BF0846704790EA010F1CBF0020704712F07F4F04D165
:400E0000400028BF40F00040704712F100723CBF00F50000704700F0004343F0FE4040F4000070477FEA226216BF08467FEA23630146420206BF5FEA412390EA010F40F4FF
:400E4000800070474FF0000304E000BF10F0004348BF40425FEA000C08BF704743F0964301464FF000001CE050EA010208BF70474FF000030AE000BF50EA010208BF7047C8
:400E800011F0004302D5404261EB41015FEA010C02BF84460146002043F0B64308BFA3F18053A3F50003BCFA8CF2083AA3EBC25310DB01FA02FC634400FA02FCC2F1200259
:400EC000BCF1004F20FA02F243EB020008BF20F00100704702F1200201FA02FCC2F1200250EA4C0021FA02F243EB020008BF20EADC7070474FF0FF0C1CEAD0521EBF1CEA58
:400F0000D15392EA0C0F93EA0C0F6FD01A4480EA010C400218BF5FEA41211ED04FF0006343EA501043EA5111A0FB01310CF00040B1F5000F3EBF490041EAD3715B0040EAE2
:400F4000010062F17F02FD2A1DD8B3F1004F40EBC25008BF20F00100704790F0000F0CF0004C08BF49024CEA502040EA51207F3AC2BFD2F1FF0340EAC250704740F4000071
:400F80004FF00003013A5DDC12F1190FDCBF00F000407047C2F10002410021FA02F1C2F1200200FA02FC5FEA310040F1000053EA4C0308BF20EADC70704792F0000F00F071
:400FC000004C02BF400010F4000F013AF9D040EA0C0093F0000F01F0004C02BF490011F4000F013BF9D041EA0C018FE70CEAD15392EA0C0F18BF93EA0C0F0AD030F0004C51
:4010000018BF31F0004CD8D180EA010000F00040704790F0000F17BF90F0004F084691F0000F91F0004F14D092EA0C0F01D142020FD193EA0C0F03D14B0218BF084608D167
:4010400080EA010000F0004040F0FE4040F40000704740F0FE4040F4400070474FF0FF0C1CEAD0521EBF1CEAD15392EA0C0F93EA0C0F69D0A2EB030280EA010C49024FEA75
:40108000402037D04FF0805343EA111143EA10130CF000408B4238BF5B0042F17D024FF4000C8B4224BF5B1A40EA0C00B3EB510F24BFA3EB510340EA5C00B3EB910F24BFF7
:4010C000A3EB910340EA9C00B3EBD10F24BFA3EBD10340EADC001B0118BF5FEA1C1CE0D1FD2A3FF650AF8B4240EBC25008BF20F0010070470CF0004C4CEA50207F32C2BF06
:40110000D2F1FF0340EAC250704740F400004FF00003013A37E792F0000F00F0004C02BF400010F4000F013AF9D040EA0C0093F0000F01F0004C02BF490011F4000F013BE4
:40114000F9D041EA0C0195E70CEAD15392EA0C0F08D142027FF47DAF93EA0C0F7FF470AF084676E793EA0C0F04D14B023FF44CAF08466EE730F0004C18BF31F0004CCAD1DA
:4011800030F000427FF45CAF31F000437FF43CAF5FE700BF4FF0FF3C06E000BF4FF0010C02E000BF4FF0010C4DF804CD4FEA40024FEA41037FEA226C18BF7FEA236C11D07B
:4011C00001B052EA530C18BF90EA010F58BFB2EB030088BFC81738BF6FEAE17018BF40F0010070477FEA226C02D15FEA402C05D17FEA236CE4D15FEA412CE1D05DF8040B38
:40120000704700BF844608466146FFE70FB5FFF7C9FF002848BF10F1000F0FBD4DF808EDFFF7F4FF0CBF012000205DF808FB00BF4DF808EDFFF7EAFF34BF012000205DF81E
:4012400008FB00BF4DF808EDFFF7E0FF94BF012000205DF808FB00BF4DF808EDFFF7D2FF94BF012000205DF808FB00BF4DF808EDFFF7C8FF34BF012000205DF808FB00BF04
:4012800042000ED2B2F1FE4F0BD34FF09E03B3EB126209D44FEA002343F0004323FA02F070474FF00000704712F1610F01D1420202D14FF0FF3070474FF00000704700BFAB
:4012C000014B1868704700BF4081FF1F0E4B70B51E460E4C0025E41AA410A54204D056F8253098470135F8E700F088FC084B094C1E46E41AA4100025A54204D056F82530B3
:4013000098470135F8E770BD081C0000081C0000081C0000101C000010B5431E0A44914204D011F8014B03F8014FF8E710BD03460244934202D003F8011BFAE770470000A8
:401340000EB400B54FF402719CB0ADF814106FF00041049107914FF6FF711DAB02900690084853F8042BADF81610006802A9019300F064F8029B00221A701CB05DF804EBD8
:4013800003B070474081FF1F2DE9F0478E6882469E420C46914698463ED88A8912F4906F3AD02568096902236F1A656905EB450595FBF3F57B1C43449D4238BF1D465305DE
:4013C0000FD5294600F040FB064698B13A462169FFF7A2FFA38923F4906343F08003A38113E02A4600F08EFB064670B92169504600F0DEFA0C23CAF80030A3894FF0FF3035
:4014000043F04003A381BDE8F08726613E44266046466561ED1BA560464528BF464649463246206800F0A8FAA36800209B1BA36023681E442660BDE8F08700002DE9F04F21
:401440009DB003938B8980461C060D4616460DD50B695BB9402100F0F7FA2860286118B90C23C8F80030CDE040236B610023099320238DF82930DFF89CB130238DF82A301F
:4014800037463C4614F8013B1BB9B7EB060910D003E0252BF9D02746F3E74B46324629464046FFF771FF013000F0A780099B4B4409933B78002B00F0A08000234FF0FF3241
:4014C00004930793059206938DF853301A930126052221784E4800F041FA671C049B38B14B4A3C46801A06FA00F018430490EFE7D90644BF20228DF853201A0744BF2B2230
:401500008DF8532022782A2A03D0079A00210A200BE0039A111D12680391002A10DA524243F00200079204900BE027463B780134303B092B03D800FB02320121F5E701B19F
:4015400007923B782E2B1ED17B782A2B0AD1039B02371A1D1B680392002BB8BF4FF0FF33059310E0002319460593781C0A2407463A780130303A092A03D804FB012101232A
:40158000F5E703B1059103223978224800F0E6F940B14023CBEB000003FA00F0049B013718430490397806221B487E1C8DF8281000F0D4F988B1194B33B9039B073323F075
:4015C00007030833039314E003AB00932A46144B04A94046AFF3008007E003AB00932A460F4B04A9404600F093F8B0F1FF3F824603D0099B5344099342E7AB895B0601D433
:40160000099801E04FF0FF301DB0BDE8F08F00BFC81B0000CE1B0000D21B000000000000891300002DE9F04791461F460A698B6806469342B8BF1346C9F8003091F84320F8
:401640000C46DDF8208012B10133C9F800302368990642BFD9F800300233C9F80030256815F0060510D104F1190A07E00123524639463046C04701301AD00135E368D9F8C7
:4016800000209B1A9D42F1DB94F843302268003318BF012392060FD5E118302081F843005A1C94F845102244023382F8431003E04FF0FF30BDE8F08704F143023946304617
:4016C000C0470130F4D02268D9F80050E36802F00602042A08BF5D1B2269A3680CBF25EAE57500259342C4BF9B1AED184FF000091A344D4509D00123224639463046C04707
:401700000130D5D009F10109F3E70020BDE8F0872DE9F04317460A7E85B06E2A984606460C460C9B01F1430E00F0AE8011D8632A22D009D8002A00F0BB80582A40F0CA80A0
:4017400081F84520834955E0642A1ED0692A1CD0C0E0732A00F0B08009D86F2A2ED0702A40F0B8800A6842F020020A603EE0752A24D0782A3AD0ADE01A6801F14205111DB5
:401780001960136884F84230A8E021681A6811F0800F02D0111D196008E011F0400F02F10401196002D0B2F9003000E01368002B3CDA2D225B4284F8432037E021681A68CC
:4017C00011F0800F02D0111D196007E011F0400F02F10401196001D0138800E01368227E5C496F2A14BF0A2208221BE078225A4984F845202268186812F0800F00F10405BC
:401800001D6003D1550601D5038800E00368D00744BF42F0200222601BB9226822F0200222601022002084F8430001E049490A226568002DA56008DB206820F004002060DE
:401840002BB9002D7DD175460CE0002B79D07546B3FBF2F002FB1033CB5C05F8013D03460028F5D1082A0BD12368DA0708D5236962689A42DEBF302305F8013C05F1FF35ED
:40188000C5EB0E0323612EE008681A6810F0800F496903D0101D1860136808E010F0400F02F104001860136801D0198000E0196000232361754616E01A68111D19601568CD
:4018C00000216268284600F049F808B1401B6060636804E004F1420584F8422001232361002384F84330CDF800803B4603AA21463046FFF797FE013002D14FF0FF3026E0B4
:4019000023692A4639463046C0470130F5D023689B0710D5002504F1190907E001234A4639463046C0470130E7D00135E368039A9B1A9D42F2DBE068039B9842B8BF1846D8
:4019400005E00B7804F1420584F842308AE705B0BDE8F083D91B0000EA1B000010B5C9B202449042034605D01C7801308C42F8D1184610BD002010BD884210B501EB020334
:4019800001D8421E0BE09842FBD28118D21AD34204D013F8014D01F8014DF8E710BD994204D011F8014B02F8014FF8E710BD000038B50546002944D051F8043C0C1F002B54
:4019C000B8BFE41800F0D4F81E4A1368114613B96360146030E0A3420DD92268A018834201BF18685B681218226063600C6023E0A24203D813465A68002AF9D11868191839
:401A0000A1420BD12168014458188242196013D110685268014419605A600DE002D90C232B6009E021686018824201BF106852680918216062605C602846BDE8384000F021
:401A400098B838BD7081FF1F70B5CD1C25F0030508350C2D38BF0C25002D064601DBA94202D90C23336046E000F082F8234B1C681A462146A1B10B685B1B0ED40B2B03D9F4
:401A80000B60CC18CD501EE08C420BBF63684B681360636018BF0C4615E00C464968E9E7174C23681BB9304600F052F820602946304600F04DF8431C18D0C41C24F0030431
:401AC000A0420DD12560304600F053F804F10B00231D20F00700C31A0ED05A42E25070BD211A304600F034F80130EBD10C233360304600F03EF8002070BD00BF7081FF1FB0
:401B00006C81FF1FF8B5074615460E4621B91146BDE8F840FFF798BF1AB9FFF749FF2846F8BD00F027F885420ED929463846FFF78BFF044650B131462A46FFF7EDFB3146B1
:401B40003846FFF735FF01E03046F8BD2046F8BD38B5064C0023054608462360FEF746FC431C02D1236803B12B6038BD7481FF1F7047704751F8040C0028BEBF091851F807
:401B8000043CC018043870470000000025660000305100401000505100402000C05100401000F0510040100000000140001000140140000800400140000A004C0140000203
:401BC0000050014020004300232D302B2000686C4C00656667454647003031323334353637383941424344454600303132333435363738396162636465660000F8B500BF92
:401C0000F8BC08BC9E4670474D00000069040000F8B500BFF8BC08BC9E46704729000000301C0000C880FF1F8000000030000000000000007881FF1F0000E02EC05D00008B
:401C40001800000000366E010000000000000000000000000000000000000000000000000000000000000000C61B00000000000000000000000000000000000000000000C6
:401C800000000000000000000000000000000000000000000000000000000000000000000000000000000000E080FF1F0000000000000000000000000000000000000000A6
:401CC00000000000000000000000000000000000000000000000000000000000000000000000000000000000000000000000000000000000000000000000000000000000E4
:401D000000000000000000000000000000000000000000000000000000000000000000000000000000000000000000000000000000000000000000000000000000000000A3
:401D40000000000000000000000000000000000000000000000000000000000000000000000000000000000000000000000000000000000000000000000000000000000063
:401D80000000000000000000000000000000000000000000000000000000000000000000000000000000000000000000000000000000000000000000000000000000000023
:020000040003F7
:0200000480007A
:4000000002520040036400405400014027010140420201402A0301405B040140310501402806014029070140010D01400217014005400140054101400345014003500140CA
:4000400010021102810D866F870F000102020C020E0116041C011E021F0123022C012E0230043101360337023A804030410249FF4AFF4BFF4DA04F045018580459045A0448
:400080005C115F01604062C06440654066C068C06AC06CC06EC083038C059401961E99029E10A207A402A60CB004B203B301B408B610B702BA02BE10C030C106C5D0C620D8
:4000C000C710C82AC9FFCAFFCBFFCDAFCE0FCF04D018D280D405D804D904DA04DB04DF01E040E2C0E440E540E6C0E8C0EAC0ECC0EEC00182044009800B200D080F02120235
:40010000166019831C401D081E081F8021802202264027202901318037203F024108432045084F21562057315E885F017640C089C2A5C431CA01CC28CE80D046D220D6D0BF
:400140000101030204770501070608850A1A0C030EFC1101130A14CA161518BF19021A401B011CCC1E23271031043308340F350336F0371038083B203E04580459045C11C5
:400180005F01820F830784FD85B78602874088308AC98C948DC08E608F1490CF923095C19722989E99049A609BF0A308A577A873AD81AF12B0FFB3F0B70FBE01D804D904C6
:4001C000DC10DF01000601800344058807240A080B800E0A0F10132019011C041E2A1F402002220C231125052620270629892C2032243620370238043B813D0A86109980D3
:40020000A020AB80AF10B420C0EFC2EAC402CA4BCCA6CECBE408EC1004FE0504060108960A680B030C0E0EF010A3125C1504160118C519011A3A1D0423012708287F2B04E9
:400240002D0432FF330C350237013E043F404014410549FF4AFF4BFF4DA04F0150185280580459045A045B045C105D115F016040628064406540668068406A806C406D2095
:400280006E80850A8D01950C9907A10CA501B101B30EB90ABF01C045C101C54CC632C70EC81FC9FFCAFFCBFFCDAFCE07CF01D018D904DA04DC10DD01DF01E040E280E440AE
:4002C000E540E680E840EA80EC40ED20EE80000401A0030409080A880B8010041320190820102168230224402602272029A92F60312032443608372038143C043F804040BF
:400300004140474248014E024F0656A85760710190049208938199809B449F20A001A208C007C20EC402CACFCC6ECE56D099D21802020301140118041E04210226092F02D5
:400340003004310232083401350136023E113F01540F580459045B045C115D105F058104830193059905A902AD02B102B504B701B902BF50D40FD904DB04DC10DD10DF0112
:4003800006800D200E200F0216201E681F8021022250252026012AA02E802F8031223B013F02580459015AA85E4A5F20660867047E04828083209004930598049AA8A3016B
:4003C000C010C2E0C420CA9CCC05CE81D6FFD860DE20E408A804A901010406805280C030D420AA80AD04B680EC40EE2056028602D604000308030A02007F7F000000000076
:40040000000B0B0000000000000202000200000003040400040000000000000000000000000000000000000000000000000000000000000000000000000000000000000091
:40044000000000000000000000000000000000000000000000000000000000000000000000000000000000000000000000000000000000000000000000000000000000007C
:40048000000000000000000000000000000000000000000000000000000000000000000000000000000000000000000000000000000000000000000000000000000000003C
:4004C00000000000000000000000000000000000000000000000000000000000000000000000000000000000000000000000000000000000000000000000000000000000FC
:4005000000000000000000000000000000000000000000000000000000000000000000000000000000000000000000000000000000000000000000000000000000000000BB
:0200000490006A
:0400000000004005B7
:0200000490105A
:04000000BC90ACAF55
:0200000490303A
:02000000421F9D
:0200000490402A
:4000000000000000000000000000000000000000000000000000000000000000000000000000000000000000000000000000000000000000000000000000000000000000C0
:400040000000000000000000000000000000000000000000000000000000000000000000000000000000000000000000000000000000000000000000000000000000000080
:400080000000000000000000000000000000000000000000000000000000000000000000000000000000000000000000000000000000000000000000000000000000000040
:4000C0000000000000000000000000000000000000000000000000000000000000000000000000000000000000000000000000000000000000000000000000000000000000
:0200000490501A
:0C00000000012E12306900012E1E7288D3
:00000001FF